:020000040800F2
:10000000FF4F0020390700087D0700087D07000822
:100010007D0700087D0700087D070008000000003C
:100020000000000000000000000000007D07000844
:100030007D070008000000007D0700084D01000852
:100040007D0700087D0700087D0700087D07000880
:100050007D0700087D0700087D0700087D07000870
:100060007D0700087D0700087D0700087D07000860
:100070007D0700087D0700087D0700087D07000850
:100080007D0700087D0700087D0700087D07000840
:100090007D0700087D0700087D0700087D07000830
:1000A0007D0700087D0700087D0700087D07000820
:1000B000610400087D0700087D0700087D0700082F
:1000C0007D0700087D0700087D0700087D07000800
:1000D0007D0700087D0700087D0700087D070008F0
:1000E0007D0700087D0700087D070008000000006C
:1000F0000000000000000000000000000000000000
:0C01000000000000000000005FF808F1A3
:10010C0010B5054C237833B9044B13B10448AFF345
:10011C0000800123237010BD2C040020000000007F
:10012C00A808000808B5034B1BB103490348AFF3FB
:10013C00008008BD0000000030040020A808000862
:10014C0080B400AF064B1B68002B04D0044B1B681B
:10015C00013B034A136000BFBD4680BC704700BF23
:10016C004804002080B582B000AF00F0F3F800F036
:10017C0081F800F055F800F055F900F0D1F90023A2
:10018C00FB8009E0FB88184600F0ECF9642000F0D5
:10019C002CF8FB880133FB80FB8842F20F729342F0
:1001AC00F0D9084B4FF000521A614FF47A7000F0FE
:1001BC001CF8044B4FF400521A614FF47A7000F0A3
:1001CC0014F8EEE70010014080B483B000AF786003
:1001DC0002E07B68013B7B607B68002BF9D100BFA0
:1001EC0000BF0C37BD4680BC704780B483B000AFF5
:1001FC007860084B084A9A60084A7B68136000BF15
:10020C00064B1B68002BFBD100BF00BF0C37BD4653
:10021C0080BC704710E000E03F190100480400204A
:10022C0080B400AF114B9B69104A43F010039361EB
:10023C000F4B5B680E4A43F4E00353600C4B4FF4D6
:10024C0000521A610A4B5B68094A43F040735360D1
:10025C00074B5B68064A23F040635360044B4FF036
:10026C0080421A6100BFBD4680BC7047001002403E
:10027C000010014080B400AF074B9B69064A43F065
:10028C0001039361054B5B68044A43F000735360B0
:10029C0000BFBD4680BC704700100240000001400A
:1002AC0080B400AF2A4B1B68294A43F0010313604A
:1002BC0000BF274B1B6803F00203002BF9D0244B23
:1002CC001B68234A23F0F8031360214B1B68204A58
:1002DC0043F0800313601E4B00225A6000BF1C4B7E
:1002EC005B6803F00C03002BF9D1194B1B68184AFF
:1002FC0023F08073136000BF154B1B6803F0007371
:10030C00002BF9D1124B1B68114A23F48033136074
:10031C000F4B1B680E4A23F40023136000BF0C4BD9
:10032C001B6803F40033002BF9D1094B1B68084AF6
:10033C0023F480231360064B5B6A054A43F08073F9
:10034C005362034B00229A6000BFBD4680BC7047CD
:10035C000010024080B400AF304B1B682F4A43F4AE
:10036C008033136000BF2D4B1B6803F40033002B4C
:10037C00F9D02B4B1B682A4A43F010031360284B0F
:10038C001B68274A43F002031360244B5B68234A23
:10039C0043F4E0135360214B5B68204A23F4003391
:1003AC0053601E4B5B681D4A43F4803353601B4BF8
:1003BC005B681A4A23F0F0035360184B5B68174ACA
:1003CC0043F480635360154B5B68144A23F4605309
:1003DC005360124B1B68114A43F4002313600F4BFC
:1003EC001B680E4A43F08073136000BF0B4B1B68F5
:1003FC0003F00073002BF9D0084B5B68074A43F0FD
:10040C000203536000BF054B5B6803F00803002B2D
:10041C00F9D000BF00BFBD4680BC70470010024041
:10042C000020024080B400AF084B094A5A60074BC9
:10043C006FF07F429A60054B1B68044A43F0070338
:10044C00136000BFBD4680BC704700BF10E000E0E9
:10045C003F19010080B500AF4FF080431B6903F0DA
:10046C000103002B09D04FF080431B694FF08042F1
:10047C0023F00103136100F002F800BF80BD80B4CB
:10048C0000AF204B1B781A461F4B9B5CDBB2DB4347
:10049C001B0403F47F031B4A127811461A4A525C60
:1004AC00D2B21A43194B1A61164B1B78002B02D18E
:1004BC00164B174A1A61134B1B78012B02D1134BA5
:1004CC00144A1A610F4B1B78022B02D10F4B124AA4
:1004DC001A610C4B1B78032B02D10C4B0F4A1A617F
:1004EC00084B1B780133DAB2064B1A70054B1B789C
:1004FC00032B02D9034B00221A7000BFBD4680BCEF
:10050C00704700BF500400204C040020000801403C
:10051C00000E0001000D0002000B00040007000893
:10052C0080B500AF00F08EF8642140F60F6000F04B
:10053C00D5F84FF080431B684FF0804243F0010325
:10054C0013600022064B1146D970054B1146997069
:10055C00034B11465970024B1A7000BF80BD00BF8F
:10056C004C04002080B483B000AF0346FB80FB88B2
:10057C00B3F57A7F03D2FF222D4B1A700AE0FB8869
:10058C002C4AA2FB03239B099BB21A462A4B9A5C6A
:10059C00274B1A70FB88632B03D8FF22244B5A700D
:1005AC0014E0FB88254AA2FB03235B099AB2244B77
:1005BC00A3FB0213D9080B469B000B445B00D31A18
:1005CC009BB21A461C4B9A5C194B5A70FB88092B30
:1005DC0003D8FF22164B9A7014E0FB88184AA2FB32
:1005EC000323DB089AB2164BA3FB0213D9080B4664
:1005FC009B000B445B00D31A9BB21A460E4B9A5CC1
:10060C000B4B9A70FA880E4BA3FB0213D9080B46BE
:10061C009B000B445B00D31A9BB21A46064B9A5CA8
:10062C00034BDA7000BF0C37BD4680BC704700BF6F
:10063C004C040020D34D6210C00800081F85EB51FC
:10064C00CDCCCCCC80B400AF144B9B69134A43F097
:10065C0004039361124B1B68114A43F0113313606E
:10066C000F4B5B680E4A43F4885343F011035360FD
:10067C000B4B1B680A4A03F033331360084B5B685F
:10068C00074A23F44C4323F0CC035360044B40F64D
:10069C00FF721A6100BFBD4680BC7047001002405B
:1006AC000008014080B483B000AF0346FB7197F99A
:1006BC000730002B0BDBFB7903F01F02064997F97F
:1006CC0007305B09012000FA02F241F8232000BF39
:1006DC000C37BD4680BC704700E100E080B582B0AD
:1006EC0000AF03460A46FB801346BB800E4BDB690A
:1006FC000D4A43F00103D3611C20FFF7D3FFFB88A5
:10070C005A1E4FF080439A624FF08042BB88D362EE
:10071C004FF08043DB684FF0804243F00103D3601D
:10072C0000BF0837BD4680BD00100240002103E029
:10073C000A4B5B584350043109480A4B42189A4201
:10074C00F6D3094A02E0002342F8043B074B9A42D5
:10075C00F9D300F00FF8FFF705FD7047DC0800082F
:10076C00000000202C0400202C0400205804002041
:10077C00FEE7000070B50D4E0D4D761BB61006D081
:10078C00002455F8043B01349847A642F9D1094E90
:10079C00094D00F083F8761BB61006D0002455F8EE
:1007AC00043B01349847A642F9D170BDD00800082B
:1007BC00D0080008D8080008D0080008024B13B174
:1007CC00024800F005B8704700000000E907000877
:1007DC00002301461A46184600F01AB838B5084BE3
:1007EC00084D5B1B9C1007D0043B1D44013C55F885
:1007FC0004399847002CF9D1BDE8384000F054B8C2
:10080C00DC080008D8080008704700BF704700BF1C
:10081C002DE9F047DFF87CA00646DAF80000984690
:10082C000F469146FFF7F0FF1B4B1B68D3F848416E
:10083C0024B365681F2D26DC5EB96B1C0235DAF813
:10084C000000636044F82570FFF7E0FF0020BDE86E
:10085C00F087012304EB8501C1F88890D4F8882136
:10086C00AB401A43022EC4F88821C1F80881E4D1A8
:10087C00D4F88C211343C4F88C31DEE703F5A6744D
:10088C00C3F84841D5E7DAF80000FFF7BFFF4FF097
:10089C00FF30DCE728040020CC080008F8B500BFC6
:1008AC00F8BC08BC9E467047F8B500BFF8BC08BC45
:0408BC009E4670479D
:1008C000C0F9A4B0999282F880907FFF00000020C8
:0808D000C9070008310100080E
:0408D8000D01000806
:1008DC0000000000EC02002054030020BC030020A8
:1008EC0000000000000000000000000000000000FC
:1008FC0000000000000000000000000000000000EC
:10090C0000000000000000000000000000000000DB
:10091C0000000000000000000000000000000000CB
:10092C0000000000000000000000000000000000BB
:10093C0000000000000000000000000000000000AB
:10094C00000000000000000000000000000000009B
:10095C00000000000000000000000000000000008B
:10096C00000000000000000000000000000000007B
:10097C00000000000000000001000000000000006A
:10098C000E33CDAB34126DE6ECDE05000B0000002F
:10099C00000000000000000000000000000000004B
:1009AC00000000000000000000000000000000003B
:1009BC00000000000000000000000000000000002B
:1009CC00000000000000000000000000000000001B
:0C0CFC0000000000000000005404002074
:0400000508000739AF
:00000001FF
